S02700004F6E2D64656D616E642054726166666963206C6967687420636F6E74726F6C2E7372656372
S11300000C94BA000C9433010C94C4000C94C400F6
S11300100C94C4000C94C4000C94C4000C94C4004C
S11300200C94C4000C94C4000C94C4000C94C4003C
S11300300C94C4000C94C4000C94C4000C94C4002C
S11300400C94C4000C94C4000C94C4000C94C4001C
S11300500C94C40011022A0243025C02740274026A
S113006074027402740274027402740274027402DC
S113007074027402740274027402740274027402CC
S113008074027402740274027402740274027402BC
S11300907402740211022A0243025C0281029A026F
S11300A0B302CC02E402E402E402E402E402E40265
S11300B0E402E402E402E402E402E402E402E4020C
S11300C0E402E402E402E402E402E402E402E402FC
S11300D0E402E402E402E402E402E40281029A0299
S11300E0B302CC02F102050319032D0341034103BA
S11300F041034103410341034103410341034103DC
S113010041034103410341034103410341034103CB
S113011041034103410341034103410341034103BB
S113012041034103F102050319032D034E0359034F
S113013064036F03790379037903790379037903FA
S113014079037903790379037903790379037903CB
S113015079037903790379037903790379037903BB
S11301607903790379037903790379034E035903F6
S113017064036F0311241FBECFE5D8E0DEBFCDBFFB
S11301800E9400020C94E1050C94000060E082E6F9
S11301900E94F10161E082E60E94F10162E082E6E0
S11301A00E94F10160E081E60E94F10161E081E6D4
S11301B00E94F10162E081E60E94F10162E084E6BE
S11301C00E94ED018FB780688FBF8BB780648BBFAF
S11301D085B7826085BF85B7816085BFC0E023C0D5
S11301E0C130A1F42BB381E090E00C2E02C0880F43
S11301F0991F0A94E2F782278BBB88E893E10E9457
S11302007A036C2F81E60E94F9010CC06C2F81E601
S11302100E94F50188E893E10E947A036C2F81E63D
S11302200E94F901CF5FC330D8F2C1E0C13069F454
S11302306C2F81E60E94FD0188E893E10E947A0315
S11302406C2F81E60E94F9010CC06C2F81E60E949C
S1130250F50188E893E10E947A036C2F81E60E94FD
S1130260F901C150E3CF1F920F920FB60F921124E0
S11302702F933F934F935F936F937F938F939F93AA
S1130280AF93BF93EF93FF9360E081E60E94E50292
S11302908130A9F560E081E60E94F90161E081E620
S11302A00E94F90162E081E60E94F90161E081E6C1
S11302B00E94F50161E082E60E94F50188E893E17D
S11302C00E947A0361E081E60E94F90161E082E61E
S11302D00E94F90162E081E60E94F50160E082E695
S11302E00E94F50188E893E10E947A0362E081E6C6
S11302F00E94F90160E082E60E94F9015DC061E0BC
S113030081E60E94E502813069F560E081E60E94A1
S1130310F90162E081E60E94F90161E082E60E944F
S1130320F50188E893E10E947A0361E081E60E9486
S1130330F90161E082E60E94F90162E081E60E942F
S1130340F50160E082E60E94F50188E893E10E94ED
S11303507A0362E081E60E94F90160E082E60E948D
S1130360F9012AC062E081E60E94E502813021F5AC
S113037060E081E60E94F90161E081E60E94F901F2
S113038062E081E60E94F50188E893E10E947A0325
S113039062E081E60E94F50160E082E60E94F501D8
S11303A088E893E10E947A0360E082E60E94F90102
S11303B062E081E60E94F901FF91EF91BF91AF9154
S11303C09F918F917F916F915F914F913F912F9169
S11303D00F900FBE0F901F90189540E00E940502E9
S11303E0089541E00E940502089541E00E947502CB
S11303F0089540E00E94750208950E944303089501
S11304000E94C60080E090E0089590E0FC01E15471
S1130410F109E432F10508F067C0E65DFF4F0C9482
S1130420DB05413059F42AB381E090E002C0880F23
S1130430991F6A95E2F7822B8ABB08952AB381E05B
S113044090E002C0880F991F6A95E2F78095822395
S11304508ABB0895413059F427B381E090E002C08B
S1130460880F991F6A95E2F7822B87BB089527B3FB
S113047081E090E002C0880F991F6A95E2F78095A9
S1130480822387BB0895413059F424B381E090E07E
S113049002C0880F991F6A95E2F7822B84BB0895E6
S11304A024B381E090E002C0880F991F6A95E2F7B7
S11304B08095822384BB0895413059F421B381E0AF
S11304C090E002C0880F991F6A95E2F7822B81BBE6
S11304D0089521B381E090E002C0880F991F6A95C6
S11304E0E2F78095822381BB089590E0FC01E154FA
S11304F0F109E432F10508F067C0E25BFF4F0C94A8
S1130500DB05413059F42BB381E090E002C0880F41
S1130510991F6A95E2F7822B8BBB08952BB381E078
S113052090E002C0880F991F6A95E2F780958223B4
S11305308BBB0895413059F428B381E090E002C0A8
S1130540880F991F6A95E2F7822B88BB089528B318
S113055081E090E002C0880F991F6A95E2F78095C8
S1130560822388BB0895413059F425B381E090E09B
S113057002C0880F991F6A95E2F7822B85BB089504
S113058025B381E090E002C0880F991F6A95E2F7D5
S11305908095822385BB0895413059F422B381E0CC
S11305A090E002C0880F991F6A95E2F7822B82BB04
S11305B0089522B381E090E002C0880F991F6A95E4
S11305C0E2F78095822382BB089590E0FC01E15418
S11305D0F109E432F10508F054C0EE58FF4F0C94D1
S11305E0DB0549B381E090E09C01062E02C0220F96
S11305F0331F0A94E2F7842F90E08223932302C0EE
S1130600959587956A95E2F7089546B381E090E061
S11306109C01062E02C0220F331F0A94E2F7842F96
S113062090E08223932302C0959587956A95E2F71B
S1130630089543B381E090E09C01062E02C0220F8E
S1130640331F0A94E2F7842F90E08223932302C09D
S1130650959587956A95E2F7089540B381E090E017
S11306609C01062E02C0220F331F0A94E2F7842F46
S113067090E08223932302C0959587956A95E2F7CB
S1130680089580E0089590E0FC01E154F109E4321A
S1130690F10578F5EA56FF4F0C94DB052BB381E0A6
S11306A090E002C0880F991F6A95E2F782278BBBFE
S11306B0089528B381E090E002C0880F991F6A95DD
S11306C0E2F7822788BB089525B381E090E002C059
S11306D0880F991F6A95E2F7822785BB089522B394
S11306E081E090E002C0880F991F6A95E2F78227A3
S11306F082BB08958F929F92AF92BF92CF92DF9266
S1130700EF92FF92CF93DF9313BEBC0180E090E0A1
S11307100E9424056B017C012FE632E143E852E498
S11307200E94D60518160CF040C02FE632E143E8CB
S113073052E4C701B6010E9483040E94F5044B01F0
S11307405C01EB012FE632E143E85EE3C701B60149
S11307500E9483046B017C01B40180E090E00E945C
S113076024059B01AC01C701B6010E9483049B01CF
S1130770AC0160E070E080E893E40E9411040E9400
S1130780F50462BF83B7846083BF20E030E008C013
S113079008B600FEFDCF88B7816088BF2F5F3F4F4A
S11307A0C217D307A8F713BE31C02FE632E143E8DE
S11307B052E4C701B6010E947E048823E4F4A70131
S11307C096016FE672E183E892E40E9411042FE639
S11307D032E143E85EE30E9483040E94F50462BFB1
S11307E083B7846083BF08B600FEFDCF88B78160FD
S11307F088BF13BE0BC012BE83B7846083BF08B624
S113080000FEFDCF88B7816088BF13BEDF91CF9112
S1130810FF90EF90DF90CF90BF90AF909F908F901C
S113082008955058BB27AA270E9429040C949C05BC
S11308300E948E0538F00E94950520F039F49F3F00
S113084019F426F40C948B050EF4E095E7FB0C9454
S11308508505E92F0E94AD0558F3BA17620773079F
S11308608407950720F079F4A6F50C94CF050EF4CF
S1130870E0950B2EBA2FA02D0B01B90190010C01AC
S1130880CA01A0011124FF27591B99F0593F50F4C4
S1130890503E68F11A16F040A22F232F342F44271C
S11308A0585FF3CF469537952795A795F040539514
S11308B0C9F77EF41F16BA0B620B730B840BBAF0E4
S11308C09150A1F0FF0FBB1F661F771F881FC2F74F
S11308D00EC0BA0F621F731F841F48F48795779563
S11308E06795B795F7959E3F08F0B0CF9395880F1D
S11308F008F09927EE0F9795879508950E94610552
S113090008F481E008950E9497040C949C050E94C9
S1130910950558F00E948E0540F029F45F3F29F0B8
S11309200C94850551110C94D0050C948B050E94F0
S1130930AD0568F39923B1F3552391F3951B550B3A
S1130940BB27AA2762177307840738F09F5F5F4F9E
S1130950220F331F441FAA1FA9F335D00E2E3AF0DD
S1130960E0E832D091505040E695001CCAF72BD0F5
S1130970FE2F29D0660F771F881FBB1F2617370746
S11309804807AB07B0E809F0BB0B802DBF01FF2778
S113099093585F4F3AF09E3F510578F00C948505CB
S11309A00C94D0055F3FE4F3983ED4F38695779595
S11309B06795B795F7959F5FC9F7880F911D969531
S11309C0879597F90895E1E0660F771F881FBB1F8D
S11309D0621773078407BA0720F0621B730B840B3A
S11309E0BA0BEE1F88F7E09508950E94B50588F0CC
S11309F09F5798F0B92F9927B751B0F0E1F0660FDF
S1130A00771F881F991F1AF0BA95C9F714C0B1301F
S1130A1091F00E94CF05B1E008950C94CF05672FA3
S1130A20782F8827B85F39F0B93FCCF3869577954E
S1130A306795B395D9F73EF4909580957095619537
S1130A407F4F8F4F9F4F0895E89409C097FB3EF462
S1130A5090958095709561957F4F8F4F9F4F992307
S1130A60A9F0F92F96E9BB279395F6958795779585
S1130A706795B795F111F8CFFAF4BB0F11F460FF45
S1130A801BC06F5F7F4F8F4F9F4F16C0882311F09D
S1130A9096E911C0772321F09EE8872F762F05C0B1
S1130AA0662371F096E8862F70E060E02AF09A954C
S1130AB0660F771F881FDAF7880F9695879597F941
S1130AC00895990F0008550FAA0BE0E8FEEF1616DB
S1130AD01706E807F907C0F012161306E407F5072E
S1130AE098F0621B730B840B950B39F40A2661F0A2
S1130AF0232B242B252B21F408950A2609F4A14045
S1130B00A6958FEF811D811D089597F99F6780E851
S1130B1070E060E008959FEF80EC089500240A944B
S1130B201616170618060906089500240A941216C4
S1130B301306140605060895092E0394000C11F4F7
S1130B40882352F0BB0F40F4BF2B11F460FF04C0A4
S1130B506F5F7F4F8F4F9F4F089557FD9058440FFD
S1130B60551F59F05F3F71F04795880F97FB991F08
S1130B7061F09F3F79F087950895121613061406C5
S1130B80551FF2CF4695F1DF08C016161706180652
S1130B90991FF1CF86957105610508940895E8942D
S1130BA0BB2766277727CB0197F908950E94610533
S1130BB008F48FEF0895EE0FFF1F0590F491E02DD8
S1090BC00994F894FFCF34
S9030000FC
